:100000000C9434000C944F010C944F010C944F014C
:100010000C944F010C944F010C944F010C944F0120
:100020000C944F010C944F010C944F010C944F0110
:100030000C944F010C944F010C944F010C944F0100
:100040000C944F000C944F010C9473000C944F01CE
:100050000C944F010C944F010C944F010C944F01E0
:100060000C944F010C944F011124EFEFEDBFE8E029
:10007000EEBFA0E0B1E0D1E0E8E0FFE002C0059112
:100080000D93A03DBD07D9F7A0EDB1E0D5E00C94EC
:100090004A001D92AE35BD07E1F70C949A00FF931C
:1000A000EF93BF93AF939F938F937F936F935F93E0
:1000B0004F933F932F931F920F920FB60F921124DD
:1000C0000E941B070F900FBE0F901F902F913F9122
:1000D0004F915F916F917F918F919F91AF91BF9160
:1000E000EF91FF911895FF93EF93BF93AF939F9379
:1000F0008F937F936F935F934F933F932F931F92B1
:100100000F920FB60F92112427E1912D822F0E949A
:10011000A4010F900FBE0F901F902F913F914F9110
:100120005F916F917F918F919F91AF91BF91EF916F
:10013000FF9118950E941C01F8940E9414070E94D8
:100140000F02812D0E9450011092D403812D0E9434
:10015000ED018F3F99F025E32093D00140E051E07D
:1001600084ED91E0AFEF6A2F0E94390148E251E03F
:1001700084ED92E0AFEF6A2F0E9439011092D10115
:100180004091D101312D212DE6EDF3E0E40FF31F75
:1001900020832091D10123952093D1013091D10169
:1001A00023E2231768F778941092D30121E020937B
:1001B000D20140915B05469580915D05880F609165
:1001C0005C050091D3012091D2010E942202812D71
:1001D0000E94A802812D0E940F03812D0E947603A8
:1001E000812D0E94DE03812D0E944604812D0E94F4
:1001F000AE040E9416050E946B050E94C0050E9475
:1002000015060E946A060E94BF062091D20123951E
:100210002093D2013091D2012CE0231708F0C9CFEE
:100220002091D30123952093D3013091D30124E071
:10023000231708F0BBCFB8CF0895CF93DF93DC012D
:10024000EB01FA011E161F068CF4CA17DB0771F0CA
:1002500048F0AE0FBF1FCE0FDF1F2E912A933197AC
:10026000E1F704C02D9129933197E1F7DF91CF9108
:1002700008954F923F922F921C01CA01FC014080C9
:10028000641508F4462E442D4395512DB1010E946A
:100290001D01F10140822F903F904F900895FFCFB4
:1002A000DF93CF93CDB7DEB7C350D0400FB6F894ED
:1002B000DEBF0FBECDBF8A832A81211559F023E30B
:1002C0002093C4001092C5002091C00022602093AA
:1002D000C00009C029E12093C4001092C50000901D
:1002E000C0000092C0002091C10028692093C10085
:1002F0002091C20026602093C200CD5FDF4F0FB671
:10030000F894DEBF0FBECDBFCF91DF910895DF938C
:10031000CF93CDB7DEB7C350D0400FB6F894DEBF51
:100320000FBECDBF2091C0002078E1F30090C60041
:100330000A828A81CD5FDF4F0FB6F894DEBF0FBE11
:10034000CDBFCF91DF910895DF93CF93CDB7DEB7C7
:10035000C550D0400FB6F894DEBF0FBECDBF8A8324
:100360009B83F8942091D403211509F02CC00E949E
:1003700087018C832C81243219F41092D50322C07A
:100380002C812E33C9F03091D503212DE6EDF3E019
:10039000E30FF21F0C8000822091D5032395209358
:1003A000D5033091D503212D4A815B813417250770
:1003B00019F42EE32093D6032C812E3319F421E077
:1003C0002093D4037894CB5FDF4F0FB6F894DEBF51
:1003D0000FBECDBFCF91DF910895DF93CF93CDB7FF
:1003E000DEB7C450D0400FB6F894DEBF0FBECDBF0D
:1003F0008A832FB32270E9F73A8112BC31BD2FB343
:1004000021602FBB00B40B828B81CC5FDF4F0FB616
:10041000F894DEBF0FBECDBFCF91DF91089524B118
:10042000216024B925B1236025B927B12F6327B9ED
:1004300028B12F6328B92AB12C6F2AB92BB12C6FA0
:100440002BB90895DF93CF930F93CDB7DEB7C85084
:10045000D0400FB6F894DEBF0FBECDBF8A836B834A
:100460004C832D830E832D81312D48E1512DB9010F
:10047000469F9001749F300D659F300D11245E8161
:10048000412D63E0712D852F942F689F502D412DB4
:10049000969F400D879F400D1124E3E2F4E0E20FA8
:1004A000F31FE50FF41F0A8000823D81212D48E1F2
:1004B000512D632F722F469F302D212D749F200DBB
:1004C000659F200D11245E81412D63E0712D852FE4
:1004D000942F689F502D412D969F400D879F400D72
:1004E0001124E4E2F4E0E30FF21FE50FF41F0B80A8
:1004F00000823D81212D48E1512D632F722F469FAF
:10050000302D212D749F200D659F200D11245E81BB
:10051000412D63E0712D852F942F689F502D412D23
:10052000969F400D879F400D1124E5E2F4E0E30F14
:10053000F21FE50FF41F0C800082C85FDF4F0FB67B
:10054000F894DEBF0FBECDBF0F91CF91DF9108951C
:10055000DF93CF93CDB7DEB7CA50D0400FB6F89433
:10056000DEBF0FBECDBF8A83F89421E0298739858D
:10057000212D48E1512D632F722F469F302D212DC3
:10058000749F200D659F200D112443E254E0430F1A
:10059000521F4B835C83312D212D3D832E832B8174
:1005A0003C81F901008008863B814C8121E0320FBB
:1005B000411D3B834C831F8228852078121648F406
:1005C000459A00000000000045982885220F2887E2
:1005D00005C0459A45982885220F28872F812395A5
:1005E0002F833F8127E0231738F72D813E8141E09B
:1005F000240F311D2D833E835D814E8138E1212DF5
:100600003517240708F0CBCF7894C65FDF4F0FB6BD
:10061000F894DEBF0FBECDBFCF91DF910895DF9379
:10062000CF93CDB7DEB7CA50D0400FB6F894DEBF37
:100630000FBECDBF8A83F89422E029873985212D0A
:1006400048E1512D632F722F469F302D212D749F2D
:10065000200D659F200D112443E254E0430F521FEB
:100660004B835C83312D212D3D832E832B813C8157
:10067000F901008008863B814C8121E0320F411D49
:100680003B834C831F8228852078121648F4449AB5
:1006900000000000000044982885220F288705C02C
:1006A000449A44982885220F28872F8123952F83E9
:1006B0003F8127E0231738F72D813E8141E0240F49
:1006C000311D2D833E835D814E8138E1212D35170B
:1006D000240708F0CBCF7894C65FDF4F0FB6F894AD
:1006E000DEBF0FBECDBFCF91DF910895DF93CF93D3
:1006F000CDB7DEB7CA50D0400FB6F894DEBF0FBEFC
:10070000CDBF8A83F89423E029873985212D48E1DC
:10071000512D632F722F469F302D212D749F200D58
:10072000659F200D112443E254E0430F521F4B8379
:100730005C83312D212D3D832E832B813C81F9015A
:10074000008008863B814C8121E0320F411D3B83B4
:100750004C831F8228852078121648F4439A0000A3
:100760000000000043982885220F288706C0439A7E
:10077000000043982885220F28872F8123952F83F7
:100780003F8127E0231730F72D813E8141E0240F80
:10079000311D2D833E835D814E8138E1212D35173A
:1007A000240708F0CACF7894C65FDF4F0FB6F894DD
:1007B000DEBF0FBECDBFCF91DF910895DF93CF9302
:1007C000CDB7DEB7CA50D0400FB6F894DEBF0FBE2B
:1007D000CDBF8A83F89424E029873985212D48E10B
:1007E000512D632F722F469F302D212D749F200D88
:1007F000659F200D112443E254E0430F521F4B83A9
:100800005C83312D212D3D832E832B813C81F90189
:10081000008008863B814C8121E0320F411D3B83E3
:100820004C831F8228852078121648F4429A0000D3
:100830000000000042982885220F288706C0429AAF
:10084000000042982885220F28872F8123952F8327
:100850003F8127E0231730F72D813E8141E0240FAF
:10086000311D2D833E835D814E8138E1212D351769
:10087000240708F0CACF7894C65FDF4F0FB6F8940C
:10088000DEBF0FBECDBFCF91DF910895DF93CF9331
:10089000CDB7DEB7CA50D0400FB6F894DEBF0FBE5A
:1008A000CDBF8A83F89425E029873985212D48E139
:1008B000512D632F722F469F302D212D749F200DB7
:1008C000659F200D112443E254E0430F521F4B83D8
:1008D0005C83312D212D3D832E832B813C81F901B9
:1008E000008008863B814C8121E0320F411D3B8313
:1008F0004C831F8228852078121648F4419A000004
:100900000000000041982885220F288706C0419AE0
:10091000000041982885220F28872F8123952F8357
:100920003F8127E0231730F72D813E8141E0240FDE
:10093000311D2D833E835D814E8138E1212D351798
:10094000240708F0CACF7894C65FDF4F0FB6F8943B
:10095000DEBF0FBECDBFCF91DF910895DF93CF9360
:10096000CDB7DEB7CA50D0400FB6F894DEBF0FBE89
:10097000CDBF8A83F89426E029873985212D48E167
:10098000512D632F722F469F302D212D749F200DE6
:10099000659F200D112443E254E0430F521F4B8307
:1009A0005C83312D212D3D832E832B813C81F901E8
:1009B000008008863B814C8121E0320F411D3B8342
:1009C0004C831F8228852078121648F4409A000034
:1009D0000000000040982885220F288706C0409A12
:1009E000000040982885220F28872F8123952F8388
:1009F0003F8127E0231730F72D813E8141E0240F0E
:100A0000311D2D833E835D814E8138E1212D3517C7
:100A1000240708F0CACF7894C65FDF4F0FB6F8946A
:100A2000DEBF0FBECDBFCF91DF910895DF93CF938F
:100A3000CDB7DEB7C850D0400FB6F894DEBF0FBEBA
:100A4000CDBF2BEC34E02A833B83F894212D312D4C
:100A50002C833D832A813B81F90100800F823A81FA
:100A60004B8121E0320F411D3A834B831E822F813F
:100A70002078121648F45F9A0000000000005F988A
:100A80002F81220F2F8306C05F9A00005F982F816D
:100A9000220F2F832E8123952E833E8127E023175B
:100AA00030F72C813D8141E0240F311D2C833D83A3
:100AB0005C814D8137E1212D3517240708F0CACF1D
:100AC0007894C85FDF4F0FB6F894DEBF0FBECDBF7E
:100AD000CF91DF910895DF93CF93CDB7DEB7C850A4
:100AE000D0400FB6F894DEBF0FBECDBF23EE34E08A
:100AF0002A833B83F894212D312D2C833D832A8139
:100B00003B81F90100800F823A814B8121E0320F55
:100B1000411D3A834B831E822F812078121648F4A0
:100B20005E9A0000000000005E982F81220F2F8344
:100B300006C05E9A00005E982F81220F2F832E81BF
:100B400023952E833E8127E0231730F72C813D81AA
:100B500041E0240F311D2C833D835C814D812FE1C9
:100B600031E02517340708F0CACF7894C85FDF4F0B
:100B70000FB6F894DEBF0FBECDBFCF91DF910895C1
:100B8000DF93CF93CDB7DEB7C850D0400FB6F894FF
:100B9000DEBF0FBECDBF2BEF34E02A833B83F8943A
:100BA000212D312D2C833D832A813B81F901008049
:100BB0000F823A814B8121E0320F411D3A834B83F2
:100BC0001E822F812078121648F45D9A00000000E2
:100BD00000005D982F81220F2F8306C05D9A0000D0
:100BE0005D982F81220F2F832E8123952E833E81A6
:100BF00027E0231730F72C813D8141E0240F311D80
:100C00002C833D835C814D812FE131E02517340732
:100C100008F0CACF7894C85FDF4F0FB6F894DEBFF4
:100C20000FBECDBFCF91DF910895DF93CF93CDB7A6
:100C3000DEB7C850D0400FB6F894DEBF0FBECDBFB0
:100C400023E135E02A833B83F894212D312D2C8339
:100C50003D832A813B81F90100800F823A814B81DB
:100C600021E0320F411D3A834B831E822F81207871
:100C7000121648F45C9A0000000000005C982F8176
:100C8000220F2F8306C05C9A00005C982F81220FF0
:100C90002F832E8123952E833E8127E0231730F763
:100CA0002C813D8141E0240F311D2C833D835C81EB
:100CB0004D812FE131E02517340708F0CACF789431
:100CC000C85FDF4F0FB6F894DEBF0FBECDBFCF9128
:100CD000DF910895DF93CF93CDB7DEB7C850D040F2
:100CE0000FB6F894DEBF0FBECDBF2BE235E02A83EE
:100CF0003B83F894212D312D2C833D832A813B8128
:100D0000F90100800F823A814B8121E0320F411DB1
:100D10003A834B831E822F812078121648F45B9A07
:100D20000000000000005B982F81220F2F8306C077
:100D30005B9A00005B982F81220F2F832E812395D1
:100D40002E833E8127E0231730F72C813D8141E03F
:100D5000240F311D2C833D835C814D812FE131E0D7
:100D60002517340708F0CACF7894C85FDF4F0FB655
:100D7000F894DEBF0FBECDBFCF91DF910895DF9312
:100D8000CF93CDB7DEB7C850D0400FB6F894DEBFD2
:100D90000FBECDBF23E435E02A833B83F894212D99
:100DA000312D2C833D832A813B81F90100800F8204
:100DB0003A814B8121E0320F411D3A834B831E82E1
:100DC0002F812078121648F45A9A00000000000083
:100DD0005A982F81220F2F8306C05A9A00005A98E2
:100DE0002F81220F2F832E8123952E833E8127E092
:100DF000231730F72C813D8141E0240F311D2C83D6
:100E00003D835C814D812FE131E02517340708F0E7
:100E1000CACF7894C85FDF4F0FB6F894DEBF0FBE1D
:100E2000CDBFCF91DF91089514BC23E025BD21E013
:100E300020936E000895DF93CF93CDB7DEB7C750F0
:100E4000D0400FB6F894DEBF0FBECDBF212D312D9F
:100E50002A833B832A813B81FE01E20FF31F3496F4
:100E600040814395FE01E20FF31F349640833A819F
:100E70002B81FE01E30FF21F34964081212D3A8130
:100E80005B813417520708F026C03A814B81212D2F
:100E9000FE01E30FF41F349620833A814B81EBE58A
:100EA000F5E0E30FF41F20812395EBE5F5E0E30F78
:100EB000F41F20832A813B81EBE5F5E0E20FF31F6D
:100EC0002081223340F03A814B81212DEBE5F5E082
:100ED000E30FF41F20832A813B8141E0240F311D61
:100EE0002A833B834A815B8132E0212D3417250719
:100EF00008F0B0CFC95FDF4F0FB6F894DEBF0FBE6A
:080F0000CDBFCF91DF910895F0
:100F08002641565220546573746D6F64756C206D5C
:100F180069742052533233322F34383520756E6459
:100F2800204E454F4C4544004B4772756E646C65C6
:100F380067656E6465722074657374207A757220B3
:100F4800446174656EC3BC62657274726167756E64
:100F580067207A772050432C20415652206D6974BF
:100F680020616E7A6569676520617566204E454F18
:100F78004C45443E009E003A029E02A002A002DABE
:100F880003DA031E041E04280E280E280E280E2835
:100F98000E280E080F46504320332E332E312D31A4
:100FA800323031352D6761316561316464393865B6
:100FB800205B323032322F31302F32325D20666F73
:100FC8007220617672202D20456D626564646564C7
:00000001FF
